{
	"data": {
		"bytecode": {
			"linkReferences": {},
			"object": "608060405234801561000f575f80fd5b503360035f6101000a81548173ffffffffffffffffffffffffffffffffffffffff021916908373ffffffffffffffffffffffffffffffffffffffff160217905550610d438061005d5f395ff3fe608060405234801561000f575f80fd5b5060043610610060575f3560e01c80630121b93f1461006457806330a56347146100805780633477ee2e1461009e5780638da5cb5b146100d05780639eb88db6146100ee578063a3ec138d1461010a575b5f80fd5b61007e600480360381019061007991906104e0565b61013a565b005b61008861028b565b604051610095919061051a565b60405180910390f35b6100b860048036038101906100b391906104e0565b610297565b6040516100c7939291906105bd565b60405180910390f35b6100d8610342565b6040516100e59190610638565b60405180910390f35b6101086004803603810190610103919061077d565b610367565b005b610124600480360381019061011f91906107ee565b61047f565b6040516101319190610833565b60405180910390f35b60025f3373ffffffffffffffffffffffffffffffffffffffff1673ffffffffffffffffffffffffffffffffffffffff1681526020019081526020015f205f9054906101000a900460ff16156101c4576040517f08c379a00000000000000000000000000000000000000000000000000000000081526004016101bb90610896565b60405180910390fd5b600180549050811061020b576040517f08c379a000000000000000000000000000000000000000000000000000000000815260040161020290610924565b60405180910390fd5b5f808281526020019081526020015f206002015f81548092919061022e9061096f565b9190505550600160025f3373ffffffffffffffffffffffffffffffffffffffff1673ffffffffffffffffffffffffffffffffffffffff1681526020019081526020015f205f6101000a81548160ff02191690831515021790555050565b5f600180549050905090565b5f602052805f5260405f205f91509050805f0154908060010180546102bb906109e3565b80601f01602080910402602001604051908101604052809291908181526020018280546102e7906109e3565b80156103325780601f1061030957610100808354040283529160200191610332565b820191905f5260205f20905b81548152906001019060200180831161031557829003601f168201915b5050505050908060020154905083565b60035f9054906101000a900473ffffffffffffffffffffffffffffffffffffffff1681565b60035f9054906101000a900473ffffffffffffffffffffffffffffffffffffffff1673ffffffffffffffffffffffffffffffffffffffff163373ffffffffffffffffffffffffffffffffffffffff16146103f6576040517f08c379a00000000000000000000000000000000000000000000000000000000081526004016103ed90610a83565b60405180910390fd5b5f600180549050905060405180606001604052808281526020018381526020015f8152505f808381526020019081526020015f205f820151815f015560208201518160010190816104479190610c3e565b5060408201518160020155905050600181908060018154018082558091505060019003905f5260205f20015f90919091909150555050565b6002602052805f5260405f205f915054906101000a900460ff1681565b5f604051905090565b5f80fd5b5f80fd5b5f819050919050565b6104bf816104ad565b81146104c9575f80fd5b50565b5f813590506104da816104b6565b92915050565b5f602082840312156104f5576104f46104a5565b5b5f610502848285016104cc565b91505092915050565b610514816104ad565b82525050565b5f60208201905061052d5f83018461050b565b92915050565b5f81519050919050565b5f82825260208201905092915050565b5f5b8381101561056a57808201518184015260208101905061054f565b5f8484015250505050565b5f601f19601f8301169050919050565b5f61058f82610533565b610599818561053d565b93506105a981856020860161054d565b6105b281610575565b840191505092915050565b5f6060820190506105d05f83018661050b565b81810360208301526105e28185610585565b90506105f1604083018461050b565b949350505050565b5f73ffffffffffffffffffffffffffffffffffffffff82169050919050565b5f610622826105f9565b9050919050565b61063281610618565b82525050565b5f60208201905061064b5f830184610629565b92915050565b5f80fd5b5f80fd5b7f4e487b71000000000000000000000000000000000000000000000000000000005f52604160045260245ffd5b61068f82610575565b810181811067ffffffffffffffff821117156106ae576106ad610659565b5b80604052505050565b5f6106c061049c565b90506106cc8282610686565b919050565b5f67ffffffffffffffff8211156106eb576106ea610659565b5b6106f482610575565b9050602081019050919050565b828183375f83830152505050565b5f61072161071c846106d1565b6106b7565b90508281526020810184848401111561073d5761073c610655565b5b610748848285610701565b509392505050565b5f82601f83011261076457610763610651565b5b813561077484826020860161070f565b91505092915050565b5f60208284031215610792576107916104a5565b5b5f82013567ffffffffffffffff8111156107af576107ae6104a9565b5b6107bb84828501610750565b91505092915050565b6107cd81610618565b81146107d7575f80fd5b50565b5f813590506107e8816107c4565b92915050565b5f60208284031215610803576108026104a5565b5b5f610810848285016107da565b91505092915050565b5f8115159050919050565b61082d81610819565b82525050565b5f6020820190506108465f830184610824565b92915050565b7f596f75206861766520616c726561647920766f746564000000000000000000005f82015250565b5f61088060168361053d565b915061088b8261084c565b602082019050919050565b5f6020820190508181035f8301526108ad81610874565b9050919050565b7f43616e6469646174652077697468207468697320696420646f6573206e6f74205f8201527f6578697374000000000000000000000000000000000000000000000000000000602082015250565b5f61090e60258361053d565b9150610919826108b4565b604082019050919050565b5f6020820190508181035f83015261093b81610902565b9050919050565b7f4e487b71000000000000000000000000000000000000000000000000000000005f52601160045260245ffd5b5f610979826104ad565b91507fffffffffffffffffffffffffffffffffffffffffffffffffffffffffffffffff82036109ab576109aa610942565b5b600182019050919050565b7f4e487b71000000000000000000000000000000000000000000000000000000005f52602260045260245ffd5b5f60028204905060018216806109fa57607f821691505b602082108103610a0d57610a0c6109b6565b5b50919050565b7f596f75206d75737420626520746865206f776e657220746f20646f20746869735f8201527f2e00000000000000000000000000000000000000000000000000000000000000602082015250565b5f610a6d60218361053d565b9150610a7882610a13565b604082019050919050565b5f6020820190508181035f830152610a9a81610a61565b9050919050565b5f819050815f5260205f209050919050565b5f6020601f8301049050919050565b5f82821b905092915050565b5f60088302610afd7fffffffffffffffffffffffffffffffffffffffffffffffffffffffffffffffff82610ac2565b610b078683610ac2565b95508019841693508086168417925050509392505050565b5f819050919050565b5f610b42610b3d610b38846104ad565b610b1f565b6104ad565b9050919050565b5f819050919050565b610b5b83610b28565b610b6f610b6782610b49565b848454610ace565b825550505050565b5f90565b610b83610b77565b610b8e818484610b52565b505050565b5b81811015610bb157610ba65f82610b7b565b600181019050610b94565b5050565b601f821115610bf657610bc781610aa1565b610bd084610ab3565b81016020851015610bdf578190505b610bf3610beb85610ab3565b830182610b93565b50505b505050565b5f82821c905092915050565b5f610c165f1984600802610bfb565b1980831691505092915050565b5f610c2e8383610c07565b9150826002028217905092915050565b610c4782610533565b67ffffffffffffffff811115610c6057610c5f610659565b5b610c6a82546109e3565b610c75828285610bb5565b5f60209050601f831160018114610ca6575f8415610c94578287015190505b610c9e8582610c23565b865550610d05565b601f198416610cb486610aa1565b5f5b82811015610cdb57848901518255600182019150602085019450602081019050610cb6565b86831015610cf85784890151610cf4601f891682610c07565b8355505b6001600288020188555050505b50505050505056fea2646970667358221220246ad140bc6925626f94c0070efb94fd05ea6b717d9380cdec5f7ab8a6a3fabf64736f6c63430008180033",
			"opcodes": "PUSH1 0x80 PUSH1 0x40 MSTORE CALLVALUE DUP1 ISZERO PUSH2 0xF JUMPI PUSH0 DUP1 REVERT JUMPDEST POP CALLER PUSH1 0x3 PUSH0 PUSH2 0x100 EXP DUP2 SLOAD DUP2 PUSH20 0xFFFFFFFFFFFFFFFFFFFFFFFFFFFFFFFFFFFFFFFF MUL NOT AND SWAP1 DUP4 PUSH20 0xFFFFFFFFFFFFFFFFFFFFFFFFFFFFFFFFFFFFFFFF AND MUL OR SWAP1 SSTORE POP PUSH2 0xD43 DUP1 PUSH2 0x5D PUSH0 CODECOPY PUSH0 RETURN INVALID PUSH1 0x80 PUSH1 0x40 MSTORE CALLVALUE DUP1 ISZERO PUSH2 0xF JUMPI PUSH0 DUP1 REVERT JUMPDEST POP PUSH1 0x4 CALLDATASIZE LT PUSH2 0x60 JUMPI PUSH0 CALLDATALOAD PUSH1 0xE0 SHR DUP1 PUSH4 0x121B93F EQ PUSH2 0x64 JUMPI DUP1 PUSH4 0x30A56347 EQ PUSH2 0x80 JUMPI DUP1 PUSH4 0x3477EE2E EQ PUSH2 0x9E JUMPI DUP1 PUSH4 0x8DA5CB5B EQ PUSH2 0xD0 JUMPI DUP1 PUSH4 0x9EB88DB6 EQ PUSH2 0xEE JUMPI DUP1 PUSH4 0xA3EC138D EQ PUSH2 0x10A JUMPI JUMPDEST PUSH0 DUP1 REVERT JUMPDEST PUSH2 0x7E PUSH1 0x4 DUP1 CALLDATASIZE SUB DUP2 ADD SWAP1 PUSH2 0x79 SWAP2 SWAP1 PUSH2 0x4E0 JUMP JUMPDEST PUSH2 0x13A JUMP JUMPDEST STOP JUMPDEST PUSH2 0x88 PUSH2 0x28B JUMP JUMPDEST PUSH1 0x40 MLOAD PUSH2 0x95 SWAP2 SWAP1 PUSH2 0x51A JUMP JUMPDEST PUSH1 0x40 MLOAD DUP1 SWAP2 SUB SWAP1 RETURN JUMPDEST PUSH2 0xB8 PUSH1 0x4 DUP1 CALLDATASIZE SUB DUP2 ADD SWAP1 PUSH2 0xB3 SWAP2 SWAP1 PUSH2 0x4E0 JUMP JUMPDEST PUSH2 0x297 JUMP JUMPDEST PUSH1 0x40 MLOAD PUSH2 0xC7 SWAP4 SWAP3 SWAP2 SWAP1 PUSH2 0x5BD JUMP JUMPDEST PUSH1 0x40 MLOAD DUP1 SWAP2 SUB SWAP1 RETURN JUMPDEST PUSH2 0xD8 PUSH2 0x342 JUMP JUMPDEST PUSH1 0x40 MLOAD PUSH2 0xE5 SWAP2 SWAP1 PUSH2 0x638 JUMP JUMPDEST PUSH1 0x40 MLOAD DUP1 SWAP2 SUB SWAP1 RETURN JUMPDEST PUSH2 0x108 PUSH1 0x4 DUP1 CALLDATASIZE SUB DUP2 ADD SWAP1 PUSH2 0x103 SWAP2 SWAP1 PUSH2 0x77D JUMP JUMPDEST PUSH2 0x367 JUMP JUMPDEST STOP JUMPDEST PUSH2 0x124 PUSH1 0x4 DUP1 CALLDATASIZE SUB DUP2 ADD SWAP1 PUSH2 0x11F SWAP2 SWAP1 PUSH2 0x7EE JUMP JUMPDEST PUSH2 0x47F JUMP JUMPDEST PUSH1 0x40 MLOAD PUSH2 0x131 SWAP2 SWAP1 PUSH2 0x833 JUMP JUMPDEST PUSH1 0x40 MLOAD DUP1 SWAP2 SUB SWAP1 RETURN JUMPDEST PUSH1 0x2 PUSH0 CALLER PUSH20 0xFFFFFFFFFFFFFFFFFFFFFFFFFFFFFFFFFFFFFFFF AND PUSH20 0xFFFFFFFFFFFFFFFFFFFFFFFFFFFFFFFFFFFFFFFF AND DUP2 MSTORE PUSH1 0x20 ADD SWAP1 DUP2 MSTORE PUSH1 0x20 ADD PUSH0 KECCAK256 PUSH0 SWAP1 SLOAD SWAP1 PUSH2 0x100 EXP SWAP1 DIV PUSH1 0xFF AND ISZERO PUSH2 0x1C4 JUMPI PUSH1 0x40 MLOAD PUSH32 0x8C379A000000000000000000000000000000000000000000000000000000000 DUP2 MSTORE PUSH1 0x4 ADD PUSH2 0x1BB SWAP1 PUSH2 0x896 JUMP JUMPDEST PUSH1 0x40 MLOAD DUP1 SWAP2 SUB SWAP1 REVERT JUMPDEST PUSH1 0x1 DUP1 SLOAD SWAP1 POP DUP2 LT PUSH2 0x20B JUMPI PUSH1 0x40 MLOAD PUSH32 0x8C379A000000000000000000000000000000000000000000000000000000000 DUP2 MSTORE PUSH1 0x4 ADD PUSH2 0x202 SWAP1 PUSH2 0x924 JUMP JUMPDEST PUSH1 0x40 MLOAD DUP1 SWAP2 SUB SWAP1 REVERT JUMPDEST PUSH0 DUP1 DUP3 DUP2 MSTORE PUSH1 0x20 ADD SWAP1 DUP2 MSTORE PUSH1 0x20 ADD PUSH0 KECCAK256 PUSH1 0x2 ADD PUSH0 DUP2 SLOAD DUP1 SWAP3 SWAP2 SWAP1 PUSH2 0x22E SWAP1 PUSH2 0x96F JUMP JUMPDEST SWAP2 SWAP1 POP SSTORE POP PUSH1 0x1 PUSH1 0x2 PUSH0 CALLER PUSH20 0xFFFFFFFFFFFFFFFFFFFFFFFFFFFFFFFFFFFFFFFF AND PUSH20 0xFFFFFFFFFFFFFFFFFFFFFFFFFFFFFFFFFFFFFFFF AND DUP2 MSTORE PUSH1 0x20 ADD SWAP1 DUP2 MSTORE PUSH1 0x20 ADD PUSH0 KECCAK256 PUSH0 PUSH2 0x100 EXP DUP2 SLOAD DUP2 PUSH1 0xFF MUL NOT AND SWAP1 DUP4 ISZERO ISZERO MUL OR SWAP1 SSTORE POP POP JUMP JUMPDEST PUSH0 PUSH1 0x1 DUP1 SLOAD SWAP1 POP SWAP1 POP SWAP1 JUMP JUMPDEST PUSH0 PUSH1 0x20 MSTORE DUP1 PUSH0 MSTORE PUSH1 0x40 PUSH0 KECCAK256 PUSH0 SWAP2 POP SWAP1 POP DUP1 PUSH0 ADD SLOAD SWAP1 DUP1 PUSH1 0x1 ADD DUP1 SLOAD PUSH2 0x2BB SWAP1 PUSH2 0x9E3 JUMP JUMPDEST DUP1 PUSH1 0x1F ADD PUSH1 0x20 DUP1 SWAP2 DIV MUL PUSH1 0x20 ADD PUSH1 0x40 MLOAD SWAP1 DUP2 ADD PUSH1 0x40 MSTORE DUP1 SWAP3 SWAP2 SWAP1 DUP2 DUP2 MSTORE PUSH1 0x20 ADD DUP3 DUP1 SLOAD PUSH2 0x2E7 SWAP1 PUSH2 0x9E3 JUMP JUMPDEST DUP1 ISZERO PUSH2 0x332 JUMPI DUP1 PUSH1 0x1F LT PUSH2 0x309 JUMPI PUSH2 0x100 DUP1 DUP4 SLOAD DIV MUL DUP4 MSTORE SWAP2 PUSH1 0x20 ADD SWAP2 PUSH2 0x332 JUMP JUMPDEST DUP3 ADD SWAP2 SWAP1 PUSH0 MSTORE PUSH1 0x20 PUSH0 KECCAK256 SWAP1 JUMPDEST DUP2 SLOAD DUP2 MSTORE SWAP1 PUSH1 0x1 ADD SWAP1 PUSH1 0x20 ADD DUP1 DUP4 GT PUSH2 0x315 JUMPI DUP3 SWAP1 SUB PUSH1 0x1F AND DUP3 ADD SWAP2 JUMPDEST POP POP POP POP POP SWAP1 DUP1 PUSH1 0x2 ADD SLOAD SWAP1 POP DUP4 JUMP JUMPDEST PUSH1 0x3 PUSH0 SWAP1 SLOAD SWAP1 PUSH2 0x100 EXP SWAP1 DIV PUSH20 0xFFFFFFFFFFFFFFFFFFFFFFFFFFFFFFFFFFFFFFFF AND DUP2 JUMP JUMPDEST PUSH1 0x3 PUSH0 SWAP1 SLOAD SWAP1 PUSH2 0x100 EXP SWAP1 DIV PUSH20 0xFFFFFFFFFFFFFFFFFFFFFFFFFFFFFFFFFFFFFFFF AND PUSH20 0xFFFFFFFFFFFFFFFFFFFFFFFFFFFFFFFFFFFFFFFF AND CALLER PUSH20 0xFFFFFFFFFFFFFFFFFFFFFFFFFFFFFFFFFFFFFFFF AND EQ PUSH2 0x3F6 JUMPI PUSH1 0x40 MLOAD PUSH32 0x8C379A000000000000000000000000000000000000000000000000000000000 DUP2 MSTORE PUSH1 0x4 ADD PUSH2 0x3ED SWAP1 PUSH2 0xA83 JUMP JUMPDEST PUSH1 0x40 MLOAD DUP1 SWAP2 SUB SWAP1 REVERT JUMPDEST PUSH0 PUSH1 0x1 DUP1 SLOAD SWAP1 POP SWAP1 POP PUSH1 0x40 MLOAD DUP1 PUSH1 0x60 ADD PUSH1 0x40 MSTORE DUP1 DUP3 DUP2 MSTORE PUSH1 0x20 ADD DUP4 DUP2 MSTORE PUSH1 0x20 ADD PUSH0 DUP2 MSTORE POP PUSH0 DUP1 DUP4 DUP2 MSTORE PUSH1 0x20 ADD SWAP1 DUP2 MSTORE PUSH1 0x20 ADD PUSH0 KECCAK256 PUSH0 DUP3 ADD MLOAD DUP2 PUSH0 ADD SSTORE PUSH1 0x20 DUP3 ADD MLOAD DUP2 PUSH1 0x1 ADD SWAP1 DUP2 PUSH2 0x447 SWAP2 SWAP1 PUSH2 0xC3E JUMP JUMPDEST POP PUSH1 0x40 DUP3 ADD MLOAD DUP2 PUSH1 0x2 ADD SSTORE SWAP1 POP POP PUSH1 0x1 DUP2 SWAP1 DUP1 PUSH1 0x1 DUP2 SLOAD ADD DUP1 DUP3 SSTORE DUP1 SWAP2 POP POP PUSH1 0x1 SWAP1 SUB SWAP1 PUSH0 MSTORE PUSH1 0x20 PUSH0 KECCAK256 ADD PUSH0 SWAP1 SWAP2 SWAP1 SWAP2 SWAP1 SWAP2 POP SSTORE POP POP JUMP JUMPDEST PUSH1 0x2 PUSH1 0x20 MSTORE DUP1 PUSH0 MSTORE PUSH1 0x40 PUSH0 KECCAK256 PUSH0 SWAP2 POP SLOAD SWAP1 PUSH2 0x100 EXP SWAP1 DIV PUSH1 0xFF AND DUP2 JUMP JUMPDEST PUSH0 PUSH1 0x40 MLOAD SWAP1 POP SWAP1 JUMP JUMPDEST PUSH0 DUP1 REVERT JUMPDEST PUSH0 DUP1 REVERT JUMPDEST PUSH0 DUP2 SWAP1 POP SWAP2 SWAP1 POP JUMP JUMPDEST PUSH2 0x4BF DUP2 PUSH2 0x4AD JUMP JUMPDEST DUP2 EQ PUSH2 0x4C9 JUMPI PUSH0 DUP1 REVERT JUMPDEST POP JUMP JUMPDEST PUSH0 DUP2 CALLDATALOAD SWAP1 POP PUSH2 0x4DA DUP2 PUSH2 0x4B6 JUMP JUMPDEST SWAP3 SWAP2 POP POP JUMP JUMPDEST PUSH0 PUSH1 0x20 DUP3 DUP5 SUB SLT ISZERO PUSH2 0x4F5 JUMPI PUSH2 0x4F4 PUSH2 0x4A5 JUMP JUMPDEST JUMPDEST PUSH0 PUSH2 0x502 DUP5 DUP3 DUP6 ADD PUSH2 0x4CC JUMP JUMPDEST SWAP2 POP POP SWAP3 SWAP2 POP POP JUMP JUMPDEST PUSH2 0x514 DUP2 PUSH2 0x4AD JUMP JUMPDEST DUP3 MSTORE POP POP JUMP JUMPDEST PUSH0 PUSH1 0x20 DUP3 ADD SWAP1 POP PUSH2 0x52D PUSH0 DUP4 ADD DUP5 PUSH2 0x50B JUMP JUMPDEST SWAP3 SWAP2 POP POP JUMP JUMPDEST PUSH0 DUP2 MLOAD SWAP1 POP SWAP2 SWAP1 POP JUMP JUMPDEST PUSH0 DUP3 DUP3 MSTORE PUSH1 0x20 DUP3 ADD SWAP1 POP SWAP3 SWAP2 POP POP JUMP JUMPDEST PUSH0 JUMPDEST DUP4 DUP2 LT ISZERO PUSH2 0x56A JUMPI DUP1 DUP3 ADD MLOAD DUP2 DUP5 ADD MSTORE PUSH1 0x20 DUP2 ADD SWAP1 POP PUSH2 0x54F JUMP JUMPDEST PUSH0 DUP5 DUP5 ADD MSTORE POP POP POP POP JUMP JUMPDEST PUSH0 PUSH1 0x1F NOT PUSH1 0x1F DUP4 ADD AND SWAP1 POP SWAP2 SWAP1 POP JUMP JUMPDEST PUSH0 PUSH2 0x58F DUP3 PUSH2 0x533 JUMP JUMPDEST PUSH2 0x599 DUP2 DUP6 PUSH2 0x53D JUMP JUMPDEST SWAP4 POP PUSH2 0x5A9 DUP2 DUP6 PUSH1 0x20 DUP7 ADD PUSH2 0x54D JUMP JUMPDEST PUSH2 0x5B2 DUP2 PUSH2 0x575 JUMP JUMPDEST DUP5 ADD SWAP2 POP POP SWAP3 SWAP2 POP POP JUMP JUMPDEST PUSH0 PUSH1 0x60 DUP3 ADD SWAP1 POP PUSH2 0x5D0 PUSH0 DUP4 ADD DUP7 PUSH2 0x50B JUMP JUMPDEST DUP2 DUP2 SUB PUSH1 0x20 DUP4 ADD MSTORE PUSH2 0x5E2 DUP2 DUP6 PUSH2 0x585 JUMP JUMPDEST SWAP1 POP PUSH2 0x5F1 PUSH1 0x40 DUP4 ADD DUP5 PUSH2 0x50B JUMP JUMPDEST SWAP5 SWAP4 POP POP POP POP JUMP JUMPDEST PUSH0 PUSH20 0xFFFFFFFFFFFFFFFFFFFFFFFFFFFFFFFFFFFFFFFF DUP3 AND SWAP1 POP SWAP2 SWAP1 POP JUMP JUMPDEST PUSH0 PUSH2 0x622 DUP3 PUSH2 0x5F9 JUMP JUMPDEST SWAP1 POP SWAP2 SWAP1 POP JUMP JUMPDEST PUSH2 0x632 DUP2 PUSH2 0x618 JUMP JUMPDEST DUP3 MSTORE POP POP JUMP JUMPDEST PUSH0 PUSH1 0x20 DUP3 ADD SWAP1 POP PUSH2 0x64B PUSH0 DUP4 ADD DUP5 PUSH2 0x629 JUMP JUMPDEST SWAP3 SWAP2 POP POP JUMP JUMPDEST PUSH0 DUP1 REVERT JUMPDEST PUSH0 DUP1 REVERT JUMPDEST PUSH32 0x4E487B7100000000000000000000000000000000000000000000000000000000 PUSH0 MSTORE PUSH1 0x41 PUSH1 0x4 MSTORE PUSH1 0x24 PUSH0 REVERT JUMPDEST PUSH2 0x68F DUP3 PUSH2 0x575 JUMP JUMPDEST DUP2 ADD DUP2 DUP2 LT PUSH8 0xFFFFFFFFFFFFFFFF DUP3 GT OR ISZERO PUSH2 0x6AE JUMPI PUSH2 0x6AD PUSH2 0x659 JUMP JUMPDEST JUMPDEST DUP1 PUSH1 0x40 MSTORE POP POP POP JUMP JUMPDEST PUSH0 PUSH2 0x6C0 PUSH2 0x49C JUMP JUMPDEST SWAP1 POP PUSH2 0x6CC DUP3 DUP3 PUSH2 0x686 JUMP JUMPDEST SWAP2 SWAP1 POP JUMP JUMPDEST PUSH0 PUSH8 0xFFFFFFFFFFFFFFFF DUP3 GT ISZERO PUSH2 0x6EB JUMPI PUSH2 0x6EA PUSH2 0x659 JUMP JUMPDEST JUMPDEST PUSH2 0x6F4 DUP3 PUSH2 0x575 JUMP JUMPDEST SWAP1 POP PUSH1 0x20 DUP2 ADD SWAP1 POP SWAP2 SWAP1 POP JUMP JUMPDEST DUP3 DUP2 DUP4 CALLDATACOPY PUSH0 DUP4 DUP4 ADD MSTORE POP POP POP JUMP JUMPDEST PUSH0 PUSH2 0x721 PUSH2 0x71C DUP5 PUSH2 0x6D1 JUMP JUMPDEST PUSH2 0x6B7 JUMP JUMPDEST SWAP1 POP DUP3 DUP2 MSTORE PUSH1 0x20 DUP2 ADD DUP5 DUP5 DUP5 ADD GT ISZERO PUSH2 0x73D JUMPI PUSH2 0x73C PUSH2 0x655 JUMP JUMPDEST JUMPDEST PUSH2 0x748 DUP5 DUP3 DUP6 PUSH2 0x701 JUMP JUMPDEST POP SWAP4 SWAP3 POP POP POP JUMP JUMPDEST PUSH0 DUP3 PUSH1 0x1F DUP4 ADD SLT PUSH2 0x764 JUMPI PUSH2 0x763 PUSH2 0x651 JUMP JUMPDEST JUMPDEST DUP2 CALLDATALOAD PUSH2 0x774 DUP5 DUP3 PUSH1 0x20 DUP7 ADD PUSH2 0x70F JUMP JUMPDEST SWAP2 POP POP SWAP3 SWAP2 POP POP JUMP JUMPDEST PUSH0 PUSH1 0x20 DUP3 DUP5 SUB SLT ISZERO PUSH2 0x792 JUMPI PUSH2 0x791 PUSH2 0x4A5 JUMP JUMPDEST JUMPDEST PUSH0 DUP3 ADD CALLDATALOAD PUSH8 0xFFFFFFFFFFFFFFFF DUP2 GT ISZERO PUSH2 0x7AF JUMPI PUSH2 0x7AE PUSH2 0x4A9 JUMP JUMPDEST JUMPDEST PUSH2 0x7BB DUP5 DUP3 DUP6 ADD PUSH2 0x750 JUMP JUMPDEST SWAP2 POP POP SWAP3 SWAP2 POP POP JUMP JUMPDEST PUSH2 0x7CD DUP2 PUSH2 0x618 JUMP JUMPDEST DUP2 EQ PUSH2 0x7D7 JUMPI PUSH0 DUP1 REVERT JUMPDEST POP JUMP JUMPDEST PUSH0 DUP2 CALLDATALOAD SWAP1 POP PUSH2 0x7E8 DUP2 PUSH2 0x7C4 JUMP JUMPDEST SWAP3 SWAP2 POP POP JUMP JUMPDEST PUSH0 PUSH1 0x20 DUP3 DUP5 SUB SLT ISZERO PUSH2 0x803 JUMPI PUSH2 0x802 PUSH2 0x4A5 JUMP JUMPDEST JUMPDEST PUSH0 PUSH2 0x810 DUP5 DUP3 DUP6 ADD PUSH2 0x7DA JUMP JUMPDEST SWAP2 POP POP SWAP3 SWAP2 POP POP JUMP JUMPDEST PUSH0 DUP2 ISZERO ISZERO SWAP1 POP SWAP2 SWAP1 POP JUMP JUMPDEST PUSH2 0x82D DUP2 PUSH2 0x819 JUMP JUMPDEST DUP3 MSTORE POP POP JUMP JUMPDEST PUSH0 PUSH1 0x20 DUP3 ADD SWAP1 POP PUSH2 0x846 PUSH0 DUP4 ADD DUP5 PUSH2 0x824 JUMP JUMPDEST SWAP3 SWAP2 POP POP JUMP JUMPDEST PUSH32 0x596F75206861766520616C726561647920766F74656400000000000000000000 PUSH0 DUP3 ADD MSTORE POP JUMP JUMPDEST PUSH0 PUSH2 0x880 PUSH1 0x16 DUP4 PUSH2 0x53D JUMP JUMPDEST SWAP2 POP PUSH2 0x88B DUP3 PUSH2 0x84C JUMP JUMPDEST PUSH1 0x20 DUP3 ADD SWAP1 POP SWAP2 SWAP1 POP JUMP JUMPDEST PUSH0 PUSH1 0x20 DUP3 ADD SWAP1 POP DUP2 DUP2 SUB PUSH0 DUP4 ADD MSTORE PUSH2 0x8AD DUP2 PUSH2 0x874 JUMP JUMPDEST SWAP1 POP SWAP2 SWAP1 POP JUMP JUMPDEST PUSH32 0x43616E6469646174652077697468207468697320696420646F6573206E6F7420 PUSH0 DUP3 ADD MSTORE PUSH32 0x6578697374000000000000000000000000000000000000000000000000000000 PUSH1 0x20 DUP3 ADD MSTORE POP JUMP JUMPDEST PUSH0 PUSH2 0x90E PUSH1 0x25 DUP4 PUSH2 0x53D JUMP JUMPDEST SWAP2 POP PUSH2 0x919 DUP3 PUSH2 0x8B4 JUMP JUMPDEST PUSH1 0x40 DUP3 ADD SWAP1 POP SWAP2 SWAP1 POP JUMP JUMPDEST PUSH0 PUSH1 0x20 DUP3 ADD SWAP1 POP DUP2 DUP2 SUB PUSH0 DUP4 ADD MSTORE PUSH2 0x93B DUP2 PUSH2 0x902 JUMP JUMPDEST SWAP1 POP SWAP2 SWAP1 POP JUMP JUMPDEST PUSH32 0x4E487B7100000000000000000000000000000000000000000000000000000000 PUSH0 MSTORE PUSH1 0x11 PUSH1 0x4 MSTORE PUSH1 0x24 PUSH0 REVERT JUMPDEST PUSH0 PUSH2 0x979 DUP3 PUSH2 0x4AD JUMP JUMPDEST SWAP2 POP PUSH32 0xFFFFFFFFFFFFFFFFFFFFFFFFFFFFFFFFFFFFFFFFFFFFFFFFFFFFFFFFFFFFFFFF DUP3 SUB PUSH2 0x9AB JUMPI PUSH2 0x9AA PUSH2 0x942 JUMP JUMPDEST JUMPDEST PUSH1 0x1 DUP3 ADD SWAP1 POP SWAP2 SWAP1 POP JUMP JUMPDEST PUSH32 0x4E487B7100000000000000000000000000000000000000000000000000000000 PUSH0 MSTORE PUSH1 0x22 PUSH1 0x4 MSTORE PUSH1 0x24 PUSH0 REVERT JUMPDEST PUSH0 PUSH1 0x2 DUP3 DIV SWAP1 POP PUSH1 0x1 DUP3 AND DUP1 PUSH2 0x9FA JUMPI PUSH1 0x7F DUP3 AND SWAP2 POP JUMPDEST PUSH1 0x20 DUP3 LT DUP2 SUB PUSH2 0xA0D JUMPI PUSH2 0xA0C PUSH2 0x9B6 JUMP JUMPDEST JUMPDEST POP SWAP2 SWAP1 POP JUMP JUMPDEST PUSH32 0x596F75206D75737420626520746865206F776E657220746F20646F2074686973 PUSH0 DUP3 ADD MSTORE PUSH32 0x2E00000000000000000000000000000000000000000000000000000000000000 PUSH1 0x20 DUP3 ADD MSTORE POP JUMP JUMPDEST PUSH0 PUSH2 0xA6D PUSH1 0x21 DUP4 PUSH2 0x53D JUMP JUMPDEST SWAP2 POP PUSH2 0xA78 DUP3 PUSH2 0xA13 JUMP JUMPDEST PUSH1 0x40 DUP3 ADD SWAP1 POP SWAP2 SWAP1 POP JUMP JUMPDEST PUSH0 PUSH1 0x20 DUP3 ADD SWAP1 POP DUP2 DUP2 SUB PUSH0 DUP4 ADD MSTORE PUSH2 0xA9A DUP2 PUSH2 0xA61 JUMP JUMPDEST SWAP1 POP SWAP2 SWAP1 POP JUMP JUMPDEST PUSH0 DUP2 SWAP1 POP DUP2 PUSH0 MSTORE PUSH1 0x20 PUSH0 KECCAK256 SWAP1 POP SWAP2 SWAP1 POP JUMP JUMPDEST PUSH0 PUSH1 0x20 PUSH1 0x1F DUP4 ADD DIV SWAP1 POP SWAP2 SWAP1 POP JUMP JUMPDEST PUSH0 DUP3 DUP3 SHL SWAP1 POP SWAP3 SWAP2 POP POP JUMP JUMPDEST PUSH0 PUSH1 0x8 DUP4 MUL PUSH2 0xAFD PUSH32 0xFFFFFFFFFFFFFFFFFFFFFFFFFFFFFFFFFFFFFFFFFFFFFFFFFFFFFFFFFFFFFFFF DUP3 PUSH2 0xAC2 JUMP JUMPDEST PUSH2 0xB07 DUP7 DUP4 PUSH2 0xAC2 JUMP JUMPDEST SWAP6 POP DUP1 NOT DUP5 AND SWAP4 POP DUP1 DUP7 AND DUP5 OR SWAP3 POP POP POP SWAP4 SWAP3 POP POP POP JUMP JUMPDEST PUSH0 DUP2 SWAP1 POP SWAP2 SWAP1 POP JUMP JUMPDEST PUSH0 PUSH2 0xB42 PUSH2 0xB3D PUSH2 0xB38 DUP5 PUSH2 0x4AD JUMP JUMPDEST PUSH2 0xB1F JUMP JUMPDEST PUSH2 0x4AD JUMP JUMPDEST SWAP1 POP SWAP2 SWAP1 POP JUMP JUMPDEST PUSH0 DUP2 SWAP1 POP SWAP2 SWAP1 POP JUMP JUMPDEST PUSH2 0xB5B DUP4 PUSH2 0xB28 JUMP JUMPDEST PUSH2 0xB6F PUSH2 0xB67 DUP3 PUSH2 0xB49 JUMP JUMPDEST DUP5 DUP5 SLOAD PUSH2 0xACE JUMP JUMPDEST DUP3 SSTORE POP POP POP POP JUMP JUMPDEST PUSH0 SWAP1 JUMP JUMPDEST PUSH2 0xB83 PUSH2 0xB77 JUMP JUMPDEST PUSH2 0xB8E DUP2 DUP5 DUP5 PUSH2 0xB52 JUMP JUMPDEST POP POP POP JUMP JUMPDEST JUMPDEST DUP2 DUP2 LT ISZERO PUSH2 0xBB1 JUMPI PUSH2 0xBA6 PUSH0 DUP3 PUSH2 0xB7B JUMP JUMPDEST PUSH1 0x1 DUP2 ADD SWAP1 POP PUSH2 0xB94 JUMP JUMPDEST POP POP JUMP JUMPDEST PUSH1 0x1F DUP3 GT ISZERO PUSH2 0xBF6 JUMPI PUSH2 0xBC7 DUP2 PUSH2 0xAA1 JUMP JUMPDEST PUSH2 0xBD0 DUP5 PUSH2 0xAB3 JUMP JUMPDEST DUP2 ADD PUSH1 0x20 DUP6 LT ISZERO PUSH2 0xBDF JUMPI DUP2 SWAP1 POP JUMPDEST PUSH2 0xBF3 PUSH2 0xBEB DUP6 PUSH2 0xAB3 JUMP JUMPDEST DUP4 ADD DUP3 PUSH2 0xB93 JUMP JUMPDEST POP POP JUMPDEST POP POP POP JUMP JUMPDEST PUSH0 DUP3 DUP3 SHR SWAP1 POP SWAP3 SWAP2 POP POP JUMP JUMPDEST PUSH0 PUSH2 0xC16 PUSH0 NOT DUP5 PUSH1 0x8 MUL PUSH2 0xBFB JUMP JUMPDEST NOT DUP1 DUP4 AND SWAP2 POP POP SWAP3 SWAP2 POP POP JUMP JUMPDEST PUSH0 PUSH2 0xC2E DUP4 DUP4 PUSH2 0xC07 JUMP JUMPDEST SWAP2 POP DUP3 PUSH1 0x2 MUL DUP3 OR SWAP1 POP SWAP3 SWAP2 POP POP JUMP JUMPDEST PUSH2 0xC47 DUP3 PUSH2 0x533 JUMP JUMPDEST PUSH8 0xFFFFFFFFFFFFFFFF DUP2 GT ISZERO PUSH2 0xC60 JUMPI PUSH2 0xC5F PUSH2 0x659 JUMP JUMPDEST JUMPDEST PUSH2 0xC6A DUP3 SLOAD PUSH2 0x9E3 JUMP JUMPDEST PUSH2 0xC75 DUP3 DUP3 DUP6 PUSH2 0xBB5 JUMP JUMPDEST PUSH0 PUSH1 0x20 SWAP1 POP PUSH1 0x1F DUP4 GT PUSH1 0x1 DUP2 EQ PUSH2 0xCA6 JUMPI PUSH0 DUP5 ISZERO PUSH2 0xC94 JUMPI DUP3 DUP8 ADD MLOAD SWAP1 POP JUMPDEST PUSH2 0xC9E DUP6 DUP3 PUSH2 0xC23 JUMP JUMPDEST DUP7 SSTORE POP PUSH2 0xD05 JUMP JUMPDEST PUSH1 0x1F NOT DUP5 AND PUSH2 0xCB4 DUP7 PUSH2 0xAA1 JUMP JUMPDEST PUSH0 JUMPDEST DUP3 DUP2 LT ISZERO PUSH2 0xCDB JUMPI DUP5 DUP10 ADD MLOAD DUP3 SSTORE PUSH1 0x1 DUP3 ADD SWAP2 POP PUSH1 0x20 DUP6 ADD SWAP5 POP PUSH1 0x20 DUP2 ADD SWAP1 POP PUSH2 0xCB6 JUMP JUMPDEST DUP7 DUP4 LT ISZERO PUSH2 0xCF8 JUMPI DUP5 DUP10 ADD MLOAD PUSH2 0xCF4 PUSH1 0x1F DUP10 AND DUP3 PUSH2 0xC07 JUMP JUMPDEST DUP4 SSTORE POP JUMPDEST PUSH1 0x1 PUSH1 0x2 DUP9 MUL ADD DUP9 SSTORE POP POP POP JUMPDEST POP POP POP POP POP POP JUMP INVALID LOG2 PUSH5 0x6970667358 0x22 SLT KECCAK256 0x24 PUSH11 0xD140BC6925626F94C0070E 0xFB SWAP5 REVERT SDIV 0xEA PUSH12 0x717D9380CDEC5F7AB8A6A3FA 0xBF PUSH5 0x736F6C6343 STOP ADDMOD XOR STOP CALLER "
		},
		"gasEstimates": {
			"creation": {
				"codeDepositCost": "679000",
				"executionCost": "24978",
				"totalCost": "703978"
			},
			"external": {
				"candidates(uint256)": "infinite",
				"getCandidateCount()": "2440",
				"owner()": "2552",
				"registerCandidate(string)": "infinite",
				"vote(uint256)": "infinite",
				"voters(address)": "2921"
			}
		},
		"methodIdentifiers": {
			"candidates(uint256)": "3477ee2e",
			"getCandidateCount()": "30a56347",
			"owner()": "8da5cb5b",
			"registerCandidate(string)": "9eb88db6",
			"vote(uint256)": "0121b93f",
			"voters(address)": "a3ec138d"
		}
	},
	"abi": [
		{
			"inputs": [],
			"stateMutability": "nonpayable",
			"type": "constructor"
		},
		{
			"inputs": [
				{
					"internalType": "uint256",
					"name": "",
					"type": "uint256"
				}
			],
			"name": "candidates",
			"outputs": [
				{
					"internalType": "uint256",
					"name": "id",
					"type": "uint256"
				},
				{
					"internalType": "string",
					"name": "name",
					"type": "string"
				},
				{
					"internalType": "uint256",
					"name": "voteCount",
					"type": "uint256"
				}
			],
			"stateMutability": "view",
			"type": "function"
		},
		{
			"inputs": [],
			"name": "getCandidateCount",
			"outputs": [
				{
					"internalType": "uint256",
					"name": "",
					"type": "uint256"
				}
			],
			"stateMutability": "view",
			"type": "function"
		},
		{
			"inputs": [],
			"name": "owner",
			"outputs": [
				{
					"internalType": "address",
					"name": "",
					"type": "address"
				}
			],
			"stateMutability": "view",
			"type": "function"
		},
		{
			"inputs": [
				{
					"internalType": "string",
					"name": "_name",
					"type": "string"
				}
			],
			"name": "registerCandidate",
			"outputs": [],
			"stateMutability": "nonpayable",
			"type": "function"
		},
		{
			"inputs": [
				{
					"internalType": "uint256",
					"name": "_candidateId",
					"type": "uint256"
				}
			],
			"name": "vote",
			"outputs": [],
			"stateMutability": "nonpayable",
			"type": "function"
		},
		{
			"inputs": [
				{
					"internalType": "address",
					"name": "",
					"type": "address"
				}
			],
			"name": "voters",
			"outputs": [
				{
					"internalType": "bool",
					"name": "",
					"type": "bool"
				}
			],
			"stateMutability": "view",
			"type": "function"
		}
	]
}